:020000040000FA
:100000000F01006A016A5B6B5E6B956A926A530E20
:10001000D36E80B01EEF00F080B222EF00F080B40B
:100020003AEF00F080B646EF00F080B852EF00F0F3
:1000300080BA5EEF00F080BC2EEF00F0000E8C6EF8
:1000400009EF00F0820E8C6E6CEC00F0080E8C6EE6
:100050006CEC00F0000E8C6E09EF00F0820E8C6EDE
:100060006CEC00F0200E8C6E6CEC00F0000E8C6ED0
:1000700009EF00F0880E8C6E6CEC00F0200E8C6E98
:100080006CEC00F0000E8C6E09EF00F0600E8C6ED0
:100090006CEC00F0080E8C6E6CEC00F0000E8C6EB8
:1000A00009EF00F0600E8C6E6CEC00F0020E8C6EAE
:1000B0006CEC00F0000E8C6E09EF00F0480E8C6EB8
:1000C0006CEC00F0020E8C6E6CEC00F0000E8C6E8E
:1000D0006CEC00F009EF00F0002E6CEF00F0012E48
:0600E0006CEF00F01200BD
:0200E600000018
:020000040030CA
:0100010028D6
:010003003CC0
:01000500D327
:010006008178
:00000001FF
